:100000000C945C000C946E000C946E000C946E00CA
:100010000C946E000C946E000C946E000C946E00A8
:100020000C946E000C946E000C946E000C946E0098
:100030000C946E000C946E000C946E000C946E0088
:100040000C9495000C946E000C946E000C946E0051
:100050000C946E000C946E000C946E000C946E0068
:100060000C946E000C946E00000000002400270029
:100070002A0000000000250028002B0004040404CE
:100080000404040402020202020203030303030342
:10009000010204081020408001020408102001021F
:1000A00004081020000000080002010000030407FB
:1000B000000000000000000011241FBECFEFD8E0B8
:1000C000DEBFCDBF21E0A0E0B1E001C01D92AB30AA
:1000D000B207E1F70E94DF000C9444020C94000088
:1000E0003FB7F8948091050190910601A091070116
:1000F000B091080126B5A89B05C02F3F19F00196C5
:10010000A11DB11D3FBFBA2FA92F982F8827820F9D
:10011000911DA11DB11DBC01CD0142E0660F771FED
:10012000881F991F4A95D1F708951F920F920FB615
:100130000F9211242F933F938F939F93AF93BF936D
:100140008091010190910201A0910301B0910401FD
:100150003091000123E0230F2D3720F40196A11DDB
:10016000B11D05C026E8230F0296A11DB11D2093E5
:1001700000018093010190930201A0930301B093C9
:1001800004018091050190910601A0910701B091B1
:1001900008010196A11DB11D8093050190930601F0
:1001A000A0930701B0930801BF91AF919F918F91E8
:1001B0003F912F910F900FBE0F901F901895CF93E6
:1001C000DF93CDB7DEB7C654D1090FB6F894DEBFC2
:1001D0000FBECDBF789484B5826084BD84B5816044
:1001E00084BD85B5826085BD85B5816085BD809102
:1001F0006E00816080936E0010928100809181007A
:100200008260809381008091810081608093810071
:10021000809180008160809380008091B100846033
:100220008093B1008091B00081608093B000809194
:100230007A00846080937A0080917A008260809353
:100240007A0080917A00816080937A0080917A00B0
:10025000806880937A001092C10082E090E09093D1
:100260000A01809309018091090190910A018A3065
:10027000910524F59927FC01E057FF4F2491FC01DB
:10028000E458FF4F8491882399F090E0880F991FDC
:10029000FC01E859FF4FA591B491FC01EE58FF4FC6
:1002A000859194918FB7F894EC91E22BEC938FBFEA
:1002B0008091090190910A010196D1CFCE0101965A
:1002C0006C0107E026E4322E11E0F601232D119295
:1002D0002A95E9F719831A831B831C831D831E83C8
:1002E00019871A871F87188B1A8B1B8B1D8B1E8BE8
:1002F0001F8B188F198F1C8F1E8F1F8F1AA31BA384
:100300001CA31EA31FA319A71AA71BA71DA71EA7DF
:100310001FA718AB19AB1AAB1BAB1CAB19AF1AAFAD
:100320001BAF1CAF1DAF1EAF1FAF92E0E92EF12C2B
:1003300082E090E090930A01809309010E9D900164
:100340000F9D300D11242C0D3D1D809109019091C0
:100350000A018A3091050CF05AC0F901E80FF91F23
:10036000329750819927FC01EC55FF4F6491FC01B5
:10037000E057FF4F4491FC01E458FF4FE491EE2316
:1003800009F43BC0662339F1633091F038F46130F1
:10039000A9F0623001F584B58F7D12C0673091F00D
:1003A0006830A1F06430B9F4809180008F7D03C083
:1003B000809180008F77809380000DC084B58F7707
:1003C00084BD09C08091B0008F7703C08091B000D8
:1003D0008F7D8093B000F0E0EE0FFF1FEE58FF4FCF
:1003E000A591B4918FB7F894EC91511103C0409549
:1003F0004E2301C04E2B4C938FBF809109019091E9
:100400000A01019690930A01809309019ECF0E94F0
:1004100070004B015C0188EC90E0A0E0B0E02C01A2
:100420003D010E947000DC01CB0188199909AA09DD
:10043000BB09883E9340A105B10588F091E0491AB7
:10044000510861087108E8EE8E0EE3E09E1EA11CC3
:10045000B11C411451046104710419F706C0D301A1
:10046000C201452846284728D1F62FEFE21AF20AA2
:100470008AE0E816F10409F05BCFE0E0F0E03097A5
:0C04800009F423CF09951ECFF894FFCF9C
:107E0000112484B714BE81FFF0D085E080938100F7
:107E100082E08093C00088E18093C10086E0809377
:107E2000C20080E18093C4008EE0C9D0259A86E02C
:107E300020E33CEF91E0309385002093840096BBD3
:107E4000B09BFECF1D9AA8958150A9F7CC24DD24C4
:107E500088248394B5E0AB2EA1E19A2EF3E0BF2EE7
:107E6000A2D0813461F49FD0082FAFD0023811F036
:107E7000013811F484E001C083E08DD089C08234E0
:107E800011F484E103C0853419F485E0A6D080C0E4
:107E9000853579F488D0E82EFF2485D0082F10E0AE
:107EA000102F00270E291F29000F111F8ED06801E7
:107EB0006FC0863521F484E090D080E0DECF843638
:107EC00009F040C070D06FD0082F6DD080E0C81688
:107ED00080E7D80618F4F601B7BEE895C0E0D1E017
:107EE00062D089930C17E1F7F0E0CF16F0E7DF06D8
:107EF00018F0F601B7BEE89568D007B600FCFDCFD4
:107F0000A601A0E0B1E02C9130E011968C91119780
:107F100090E0982F8827822B932B1296FA010C0160
:107F200087BEE89511244E5F5F4FF1E0A038BF0790
:107F300051F7F601A7BEE89507B600FCFDCF97BE46
:107F4000E89526C08437B1F42ED02DD0F82E2BD052
:107F50003CD0F601EF2C8F010F5F1F4F84911BD097
:107F6000EA94F801C1F70894C11CD11CFA94CF0C13
:107F7000D11C0EC0853739F428D08EE10CD085E9AC
:107F80000AD08FE07ACF813511F488E018D01DD067
:107F900080E101D065CF982F8091C00085FFFCCF94
:107FA0009093C60008958091C00087FFFCCF809118
:107FB000C00084FD01C0A8958091C6000895E0E648
:107FC000F0E098E1908380830895EDDF803219F02E
:107FD00088E0F5DFFFCF84E1DECF1F93182FE3DFCA
:107FE0001150E9F7F2DF1F91089580E0E8DFEE27F6
:047FF000FF270994CA
:027FFE00040479
:0400000300007E007B
:00000001FF
