:100000000C9461000C9473000C9473000C947300B6
:100010000C9473000C9473000C9473000C94730094
:100020000C9473000C9473000C9473000C94730084
:100030000C9473000C9473000C9473000C94730074
:100040000C949E000C9473000C9473000C94730039
:100050000C9473000C9473000C9473000C94730054
:100060000C9473000C94730000000000240027001F
:100070002A000000000023002600290000000000E4
:10008000250028002B0004040404040404040202D4
:100090000202020203030303030301020408102007
:1000A0004080010204081020010204081020000012
:1000B0000008000201000003040700000000000027
:1000C000000011241FBECFEFD8E0DEBFCDBF21E07E
:1000D000A0E0B1E001C01D92AB30B207E1F70E9491
:1000E000E8000C94F1010C940000833081F028F4B6
:1000F000813099F08230A1F008958730A9F08830DE
:10010000B9F08430D1F4809180008F7D03C080915C
:1001100080008F7780938000089584B58F7702C028
:1001200084B58F7D84BD08958091B0008F7703C022
:100130008091B0008F7D8093B00008951F920F9240
:100140000FB60F9211242F933F938F939F93AF93EA
:10015000BF938091070190910801A0910901B0918E
:100160000A013091060123E0230F2D3720F4019678
:10017000A11DB11D05C026E8230F0296A11DB11DCA
:10018000209306018093070190930801A093090131
:10019000B0930A018091020190910301A0910401A2
:1001A000B09105010196A11DB11D809302019093AC
:1001B0000301A0930401B0930501BF91AF919F91FA
:1001C0008F913F912F910F900FBE0F901F90189518
:1001D000789484B5826084BD84B5816084BD85B522
:1001E000826085BD85B5816085BD80916E0081602E
:1001F00080936E00109281008091810082608093D4
:1002000081008091810081608093810080918000D5
:100210008160809380008091B10084608093B10000
:100220008091B00081608093B00080917A008460FA
:1002300080937A0080917A00826080937A00809126
:100240007A00816080937A0080917A008068809340
:100250007A001092C10082E090E0909301018093B7
:10026000000180910001909101018A3091050CF00C
:100270004AC09927FC01E656FF4F2491FC01EA573A
:10028000FF4F8491882399F090E0880F991FFC011B
:10029000E859FF4FA591B491FC01E458FF4F8591B7
:1002A00094918FB7F894EC91E22BEC938FBF8091EF
:1002B00000018C5E90E0FC01E656FF4F2491FC01AA
:1002C000EA57FF4F84918823C1F090E0880F991F6F
:1002D000FC01E859FF4FC591D491FC01E458FF4F50
:1002E000A591B4919FB7F8948881E22FE0958E2371
:1002F00088838C91E823EC939FBF809100019091BB
:1003000001010196AACF00E010E022E0E22EF12CDC
:10031000F0920101E0920001C0910001D091010131
:10032000CA30D1050CF056C02C2F2C5E30E0F901FC
:10033000E255FF4F8491F901E656FF4FC490F90151
:10034000EA57FF4FD490DD20A1F081110E94750083
:10035000ED2DF0E0EE0FFF1FEE58FF4FA591B49189
:10036000EC91EC2191E080E009F490E0C92ED82EC8
:1003700002C0C12CD12CDD27FE01E255FF4F849134
:10038000FE01E656FF4FB490FE01EA57FF4FC491BD
:10039000CC23B1F081110E947500EC2FF0E0EE0F3C
:1003A000FF1FE458FF4FA591B4918FB7F894EC91DB
:1003B000CD2819F4B094BE2201C0BE2ABC928FBFD2
:1003C0008091000190910101019690930101809329
:1003D0000001A2CF0115110509F49ACF0E94000077
:0603E00097CFF894FFCF57
:00000001FF
