:100000000C945C000C946E000C946E000C946E00CA
:100010000C946E000C946E000C946E000C946E00A8
:100020000C946E000C946E000C946E000C946E0098
:100030000C946E000C946E000C946E000C946E0088
:100040000C9412010C946E000C946E000C946E00D3
:100050000C946E000C946E000C946E000C946E0068
:100060000C946E000C946E00000000002400270029
:100070002A0000000000250028002B0004040404CE
:100080000404040402020202020203030303030342
:10009000010204081020408001020408102001021F
:1000A00004081020000000080002010000030407FB
:1000B000000000000000000011241FBECFEFD8E0B8
:1000C000DEBFCDBF21E0A0E0B1E001C01D92AB30AA
:1000D000B207E1F70E945C010C940A020C94000044
:1000E00090E0FC01EC55FF4F2491FC01E057FF4FDD
:1000F0003491FC01E458FF4FE491EE23B1F1222347
:1001000039F1233091F038F42130A9F0223001F593
:1001100084B58F7D12C0273091F02830A1F02430B3
:10012000B9F4809180008F7D03C0809180008F772B
:10013000809380000DC084B58F7784BD09C0809105
:10014000B0008F7703C08091B0008F7D8093B000A6
:10015000F0E0EE0FFF1FEE58FF4FA591B4918FB75F
:10016000F894EC913E2B3C938FBF08953FB7F894E1
:100170008091050190910601A0910701B0910801BD
:1001800026B5A89B05C02F3F19F00196A11DB11DF2
:100190003FBFBA2FA92F982F8827820F911DA11D2D
:1001A000B11DBC01CD0142E0660F771F881F991F6A
:1001B0004A95D1F708958F929F92AF92BF92CF92B6
:1001C000DF92EF92FF920E94B6004B015C0184E641
:1001D000C82ED12CE12CF12C0E94B600DC01CB0101
:1001E00088199909AA09BB09883E9340A105B10560
:1001F00058F021E0C21AD108E108F10888EE880E13
:1002000083E0981EA11CB11CC114D104E104F104C7
:1002100019F7FF90EF90DF90CF90BF90AF909F9035
:100220008F9008951F920F920FB60F9211242F9363
:100230003F938F939F93AF93BF93809101019091D0
:100240000201A0910301B09104013091000123E06B
:10025000230F2D3720F40196A11DB11D05C026E8FE
:10026000230F0296A11DB11D20930001809301016F
:1002700090930201A0930301B093040180910501C2
:1002800090910601A0910701B09108010196A11D6E
:10029000B11D8093050190930601A0930701B093CF
:1002A0000801BF91AF919F918F913F912F910F9036
:1002B0000FBE0F901F901895789484B5826084BD0E
:1002C00084B5816084BD85B5826085BD85B581605A
:1002D00085BD80916E00816080936E0010928100D8
:1002E0008091810082608093810080918100816093
:1002F0008093810080918000816080938000809154
:10030000B10084608093B1008091B00081608093DF
:10031000B00080917A00846080937A0080917A00A6
:10032000826080937A0080917A00816080937A0065
:1003300080917A00806880937A001092C10082E0F8
:1003400090E090930A0180930901809109019091B6
:100350000A018A30910524F59927FC01E057FF4FE7
:100360002491FC01E458FF4F8491882399F090E098
:10037000880F991FFC01E859FF4FA591B491FC012A
:10038000EE58FF4F859194918FB7F894EC91E22B42
:10039000EC938FBF8091090190910A010196D1CF12
:1003A00000E010E082E0E82EF12C99E0C92ED12C7B
:1003B000F0920A01E0920901C0910901D0910A016D
:1003C000CA30D1055CF48C2F0E9470000E94DB00C3
:1003D0002196D0930A01C0930901EECFD0920A0171
:1003E000C0920901C0910901D0910A01C230D10522
:1003F0005CF08C2F0E9470000E94DB002197D0934C
:100400000A01C0930901EECF0115110589F20E947E
:080410000000CECFF894FFCFED
:00000001FF
