:100000000C9461000C947E000C947E000C947E0095
:100010000C947E000C947E000C947E000C947E0068
:100020000C947E000C947E000C947E000C947E0058
:100030000C947E000C947E000C947E000C947E0048
:100040000C94D9000C947E000C947E000C947E00DD
:100050000C947E000C947E000C947E000C947E0028
:100060000C947E000C947E00000000002500280007
:100070002B0000000000240027002A0000000000E0
:1000800023002600290004040404040404040202DA
:100090000202020203030303030301020408102007
:1000A0004080010204081020010204081020000012
:1000B0000008000201000003040700000000000027
:1000C000000011241FBECFEFD8E0DEBFCDBF11E08E
:1000D000A0E0B1E0E6EAF4E002C005900D92A6349B
:1000E000B107D9F721E0A6E4B1E001C01D92A13526
:1000F000B207E1F70E9423010C9451020C94000016
:10010000833081F028F4813099F08230A1F0089595
:100110008730A9F08830B9F08430D1F48091800024
:100120008F7D03C0809180008F7780938000089539
:1001300084B58F7702C084B58F7D84BD089580918A
:10014000B0008F7703C08091B0008F7D8093B000A6
:1001500008951F93CF93DF93282F30E0F901E255E4
:10016000FF4F8491F901E656FF4FD491F901EA5708
:10017000FF4FC491CC23C9F0162F81110E9480003B
:10018000EC2FF0E0EE0FFF1FE859FF4FA591B4915F
:100190008FB7F894111105C09C91ED2FE095E923DC
:1001A00002C0EC91ED2BEC938FBFDF91CF911F91AB
:1001B00008951F920F920FB60F9211242F933F9321
:1001C0008F939F93AF93BF9380914D0190914E0178
:1001D000A0914F01B091500130914C0123E0230FC9
:1001E0002D3720F40196A11DB11D05C026E8230F6F
:1001F0000296A11DB11D20934C0180934D01909357
:100200004E01A0934F01B09350018091480190910D
:100210004901A0914A01B0914B010196A11DB11D68
:100220008093480190934901A0934A01B0934B01F8
:10023000BF91AF919F918F913F912F910F900FBEE2
:100240000F901F901895CF93DF93CDB7DEB7C654AC
:10025000D1090FB6F894DEBF0FBECDBF789484B538
:10026000826084BD84B5816084BD85B5826085BDB2
:1002700085B5816085BD80916E00816080936E0040
:100280001092810080918100826080938100809132
:1002900081008160809381008091800081608093E3
:1002A00080008091B10084608093B1008091B000A3
:1002B00081608093B00080917A00846080937A009E
:1002C00080917A00826080937A0080917A008160C8
:1002D00080937A0080917A00806880937A001092EF
:1002E000C10082E090E090934701809346018091A5
:1002F0004601909147018A3091050CF04BC0992737
:10030000FC01E656FF4F2491FC01EA57FF4F849110
:10031000882399F090E0880F991FFC01EE58FF4F59
:10032000A591B491FC01E859FF4F859194918FB745
:10033000F894EC91E22BEC938FBF809146018C5E98
:1003400090E0FC01E656FF4F2491FC01EA57FF4F75
:1003500084918823C9F090E0880F991FFC01EE5822
:10036000FF4F45915491FC01E859FF4FA591B4917D
:100370009FB7F894FA0180812095822380838C9125
:10038000E22FE823EC939FBF8091460190914701B3
:100390000196A9CF30E0E32E30E0F32E02E010E02A
:1003A00096E4B92E27E0A22EE0E0F1E0DE011196FE
:1003B0008B2D01900D928A95E1F7C12CD12C812CC7
:1003C0007724739496012A5E3F4FF901E255FF4F5F
:1003D0008491F901E656FF4F9490F901EA57FF4FD7
:1003E0006490662079F081110E948000E62DF0E093
:1003F000EE0FFF1FE458FF4FA591B491EC919E22A0
:1004000081E009F480E0789E800C1124770CFFEFE6
:10041000CF1ADF0A84E0C816D104A1F699E0109340
:10042000470100934601981540F1E1E0F0E0EC0F40
:10043000FD1FA89CE00DF11D11244F01C090460145
:10044000D09047018AE0C816D10484F4F401EC0D81
:10045000FD1D329760818C2D0E94A900FFEFCF1AFD
:10046000DF0AD0924701C0924601E8CFE114F104BF
:1004700009F49ACF0E94000093CFC0904601D0901B
:100480004701EAE0CE16D1048CF760E08C2D0E9483
:10049000A9009FEFC91AD90AD0924701C09246011C
:0604A000ECCFF894FFCF41
:1004A600010101010101000001010000000001013C
:1004B600000101000101010101000001000101002C
:1004C600000101010001010001010100010101011A
:1004D600010101010000000001010101010101010A
:0604E6000101000001010C
:107E0000112484B714BE81FFF0D085E080938100F7
:107E100082E08093C00088E18093C10086E0809377
:107E2000C20080E18093C4008EE0C9D0259A86E02C
:107E300020E33CEF91E0309385002093840096BBD3
:107E4000B09BFECF1D9AA8958150A9F7CC24DD24C4
:107E500088248394B5E0AB2EA1E19A2EF3E0BF2EE7
:107E6000A2D0813461F49FD0082FAFD0023811F036
:107E7000013811F484E001C083E08DD089C08234E0
:107E800011F484E103C0853419F485E0A6D080C0E4
:107E9000853579F488D0E82EFF2485D0082F10E0AE
:107EA000102F00270E291F29000F111F8ED06801E7
:107EB0006FC0863521F484E090D080E0DECF843638
:107EC00009F040C070D06FD0082F6DD080E0C81688
:107ED00080E7D80618F4F601B7BEE895C0E0D1E017
:107EE00062D089930C17E1F7F0E0CF16F0E7DF06D8
:107EF00018F0F601B7BEE89568D007B600FCFDCFD4
:107F0000A601A0E0B1E02C9130E011968C91119780
:107F100090E0982F8827822B932B1296FA010C0160
:107F200087BEE89511244E5F5F4FF1E0A038BF0790
:107F300051F7F601A7BEE89507B600FCFDCF97BE46
:107F4000E89526C08437B1F42ED02DD0F82E2BD052
:107F50003CD0F601EF2C8F010F5F1F4F84911BD097
:107F6000EA94F801C1F70894C11CD11CFA94CF0C13
:107F7000D11C0EC0853739F428D08EE10CD085E9AC
:107F80000AD08FE07ACF813511F488E018D01DD067
:107F900080E101D065CF982F8091C00085FFFCCF94
:107FA0009093C60008958091C00087FFFCCF809118
:107FB000C00084FD01C0A8958091C6000895E0E648
:107FC000F0E098E1908380830895EDDF803219F02E
:107FD00088E0F5DFFFCF84E1DECF1F93182FE3DFCA
:107FE0001150E9F7F2DF1F91089580E0E8DFEE27F6
:047FF000FF270994CA
:027FFE00040479
:0400000300007E007B
:00000001FF
