:1000000013C1000030C100002EC100002CC100004F
:100010002AC1000028C1000026C1000024C1000040
:1000200022C1000020C100001EC100001CC1000050
:100030001AC1000018C1000016C1000014C1000060
:1000400012C1000010C100000EC100000CC1000070
:100050000AC1000008C1000006C1000089C10000FB
:1000600002C1000000C10000FEC00000FCC0000092
:10007000FAC00000F8C00000F6C00000F4C00000A4
:10008000F2C00000F0C00000EEC00000ECC00000B4
:10009000EAC00000E8C00000E6C00000E4C00000C4
:1000A000E2C00000E0C00000DEC00000DCC00000D4
:1000B000DAC00000D8C00000D6C00000D4C00000E4
:1000C000D2C00000D0C00000CEC00000CCC00000F4
:1000D000CAC00000C8C00000C6C00000C4C0000004
:1000E000C2C000004E015101400144014A01880193
:1000F000550159015F01630167016D0171017501CE
:1001000088017B017F018301000022002500280077
:100110002B002E003100340002010000050108010F
:100120000B0100002100240027002A002D003000D0
:10013000330001010000040107010A010000200052
:100140002300260029002C002F00320000010000AF
:10015000030106010901050505050705080808084A
:10016000020202020A0A080804040404010101014F
:10017000010101010303030303030303040707074A
:100180000C0C0C0C0C0C0C0C0202020206060606EF
:10019000060606060B0B0B0B0B0B0B0B01021020BC
:1001A00020080810204010204080020102010804AD
:1001B0000201010204081020408080402010080441
:1001C000020180040201804020100804020108049A
:1001D00002010102040810204080010204081020DE
:1001E000408000000A0B02090C0D0E0807030401F1
:1001F00000000000000000000000000000000000FF
:1002000000000000000000000000000000001211CB
:1002100010000000000000000000000000000000CE
:10022000000000000000000011241FBECFEFD1E24B
:10023000DEBFCDBF00E00CBF12E0A0E0B2E0E8EC12
:10024000F6E000E00BBF02C007900D92A634B107A4
:10025000D9F722E0A6E4B2E001C01D92A135B207B1
:10026000E1F7D0D02FC2CCCE90E0FC013197E23143
:10027000F10508F04DC08827EE58FF4F8F4F1AC286
:10028000809180008F7703C0809180008F7D809364
:100290008000089580918000877FF9CF84B58F77A3
:1002A00002C084B58F7D84BD08958091B0008F77A2
:1002B00003C08091B0008F7D8093B000089580913D
:1002C00090008F7707C0809190008F7D03C0809150
:1002D0009000877F8093900008958091A0008F7791
:1002E00007C08091A0008F7D03C08091A000877F10
:1002F0008093A0000895809120018F7707C080919E
:1003000020018F7D03C080912001877F8093200191
:1003100008951F93CF93DF93282F30E0F901EE511A
:10032000FE4F8491F901E456FE4FD491F901EA5A47
:10033000FE4FC491CC23C1F0162F811195DFEC2F15
:10034000F0E0EE0FFF1FE85FFE4FA591B4918FB76D
:10035000F894111105C09C91ED2FE095E92302C09E
:10036000EC91ED2BEC938FBFDF91CF911F9108950E
:100370001F920F920FB60F9211242F933F938F93DA
:100380009F93AF93BF9380914D0290914E02A091A5
:100390004F02B091500230914C0223E0230F2D37D1
:1003A00020F40196A11DB11D05C026E8230F029679
:1003B000A11DB11D20934C0280934D0290934E02DB
:1003C000A0934F02B093500280914802909149024D
:1003D000A0914A02B0914B020196A11DB11D8093DC
:1003E000480290934902A0934A02B0934B02BF91F6
:1003F000AF919F918F913F912F910F900FBE0F90D2
:100400001F901895CF93DF93CDB7DEB7C654D109AF
:100410000FB6F894DEBF0FBECDBF789484B582606E
:1004200084BD84B5816084BD85B5826085BD85B598
:10043000816085BD80916E00816080936E00109216
:100440008100809181008260809381008091810091
:100450008160809381008091800081608093800022
:100460008091B10084608093B1008091B000816080
:100470008093B00080919100826080939100809180
:1004800091008160809391008091900081608093C1
:1004900090008091A10082608093A1008091A100D2
:1004A00081608093A1008091A00081608093A00072
:1004B00080912101826080932101809121018160DE
:1004C000809321018091200181608093200180919F
:1004D0007A00846080937A0080917A0082608093B1
:1004E0007A0080917A00816080937A0080917A000E
:1004F000806880937A001092C10082E090E090932F
:1005000047028093460280914602909147028A30CA
:1005100091050CF04BC09927FC01E456FE4F249145
:10052000FC01EA5AFE4F8491882399F090E0880FED
:10053000991FFC01EE5DFE4FA591B491FC01E85FAF
:10054000FE4F859194918FB7F894EC91E22BEC9348
:100550008FBF809146028C5E90E0FC01E456FE4F16
:100560002491FC01EA5AFE4F84918823C9F090E05F
:10057000880F991FFC01EE5DFE4F45915491FC01DF
:10058000E85FFE4FA591B4919FB7F894FA0180817E
:100590002095822380838C91E22FE823EC939FBFE8
:1005A00080914602909147020196A9CF30E0E32E58
:1005B00030E0F32E02E010E096E4B92E27E0A22E00
:1005C000E0E0F2E0DE0111968B2D01900D928A950C
:1005D000E1F7C12CD12C812C7724739496012A5EEB
:1005E0003F4FF901EE51FE4F8491F901E456FE4F61
:1005F0009490F901EA5AFE4F6490662071F08111DF
:1006000033DEE62DF0E0EE0FFF1FE45CFE4FA59118
:10061000B491EC919E2281E009F480E0789E800CF8
:100620001124770CFFEFCF1ADF0A84E0C816D1043B
:10063000A9F699E01093470200934602981538F105
:10064000E1E0F0E0EC0FFD1FA89CE00DF11D11248E
:100650004F01C0904602D09047028AE0C816D104EC
:100660007CF4F401EC0DFD1D329760818C2D51DE80
:10067000FFEFCF1ADF0AD0924702C0924602E9CFBD
:10068000E114F10409F49CCF0E94000095CFC090C2
:100690004602D0904702EAE0CE16D1048CF760E023
:1006A0008C2D37DE9FEFC91AD90AD0924702C0922B
:1006B0004602EDCFEE0FFF1F881F8BBF0790F6910C
:0806C000E02D1994F894FFCF1E
:1006C8000101010101010000010100000000010118
:1006D8000001010001010101010000010001010008
:1006E80000010101000101000101010001010101F6
:1006F80001010101000000000101010101010101E6
:06070800010100000101E7
:00000001FF
